:020000040800F2
:10000000000400200101000879070008EB06000841
:1000100075070008B5050008ED080008000000009D
:100020000000000000000000000000009D07000824
:10003000B9050008000000007B07000889080008D7
:100040001B0100081B0100081B0100081B01000820
:100050001B0100081B0100081B0100081B01000810
:100060001B0100081B0100081B0100081B01000800
:100070001B0100081B0100081B0100081B010008F0
:100080001B0100081B0100081B0100081B010008E0
:100090001B0100081B0100081B0100081B010008D0
:1000A0001B0100081B0100081B0100081B010008C0
:1000B0001B0100081B0100081B0100081B010008B0
:1000C0001B0100081B0100081B0100081B010008A0
:1000D0001B0100081B0100081B0100081B01000890
:1000E0001B0100081B0100081B010008DFF80CD0F1
:1000F00000F0CAF9004800475D090008000400202C
:100100000648804706480047FEE7FEE7FEE7FEE7B1
:10011000FEE7FEE7FEE7FEE7FEE7FEE78D080008E4
:10012000ED0000082DE9FE4F81EA030404F00044CD
:1001300021F0004100944FF0000B23F0004350EAFF
:1001400001045ED052EA03045BD0C3F30A54C1F346
:100150000A552C44A4F2F3340194A0FB0254C1F3D9
:10016000130141F48011C3F3130343F4801301FB23
:10017000024400FB034E840A970A44EA815447EA8A
:100180008357A4FB076802958D0A05FB07854FEA94
:10019000932C04FB0C542705029D4FEA065847EAAE
:1001A0001637B5EB08056EEB070C870E920E47EA83
:1001B000811742EA8312A7FB0201B6EB0B0164EB45
:1001C00000042B0D43EA0C335E1844EB1C50DA4656
:1001D0005146E7FB0201C5F313044FEA0B3343EA30
:1001E00014534FEA0432019C43EA0603A4F10C04C1
:1001F0000294009CCDE900B400F0F8F803B0BDE82B
:10020000F08F00200146F9E72DE9F04D81EA030463
:1002100004F0004B21F0004514464FF0000A23F093
:10022000004150EA050220D054EA01021DD0C5F376
:100230000A570246C5F31303C1F31300C1F30A566C
:1002400040F4801543F48013A7EB0608101BD64634
:1002500008F2FD3873EB050002D308F1010801E054
:1002600092185B41B8F1000F03DA00200146BDE8A7
:10027000F08D00204FF48011064684460EE0171BD7
:1002800073EB050705D3121B63EB050306434CEA2A
:10029000010C49084FEA300092185B4150EA01070F
:1002A000EDD152EA030012D082EA040083EA05018C
:1002B000084305D0101BAB4106D20122002306E003
:1002C00000224FF0004302E06FF0010253101AEBDE
:1002D00006004CEB085110EB0A0041EB0B01BDE8A6
:1002E000F04D00F074B80EB540F233410291002198
:1002F000CDE900110A460B4600F078F803B000BDC6
:1003000020F00040C10DC0F3160040F400007F292A
:1003100001DA00207047962903DCC1F19601C8403C
:10032000704796398840704701F0004330B421F09F
:10033000004150EA010206D00A0DA2F56072C1F335
:100340001301002A02DC30BC00207047440F44EA4D
:10035000C104C100E01830BC00EBC250AFF3008014
:100360000029A8BF7047401C490008BF20F00100C9
:10037000704710B4B0FA80FC00FA0CF050EA0104A7
:1003800004BF10BC704749B1CCF1200421FA04F439
:1003900011FA0CF118BF012121430843A3EB0C0112
:1003A000CB1D4FEA00614FEA102042BF002010BC75
:1003B000704700EBC35010440029A4BF10BC704725
:1003C000401C490008BF20F0010010BC704710B568
:1003D000141E73F1000408DA401C41F10001921868
:1003E0005B411A4301D120F0010010BD2DE9F04D11
:1003F00092469B4611B1B1FA81F202E0B0FA80F266
:100400002032904600F052F804460F4640EA0A00B7
:1004100041EA0B0153465A46084313D0114653EAAA
:10042000010019D0C8F14002504600F04EF80546D0
:100430000E4650465946424600F038F8084305D06B
:10044000012004E020463946BDE8F08D0020054338
:1004500046EAE0762C4337430A986305E40AA0EBAA
:1004600008000022FD0A44EA47540A3002D5002061
:100470000146E9E7010510196941DDE90845001960
:100480006941BDE8F04DA2E7064C074D06E0E06883
:1004900040F0010394E8070098471034AC42F6D3CB
:1004A000FFF728FEF8090008080A0008202A04DBE4
:1004B000203A00FA02F1002070479140C2F1200377
:1004C00020FA03F3194390407047202A04DB203AB6
:1004D00021FA02F00021704721FA02F3D040C2F164
:1004E0002002914008431946704700002DE9F04F63
:1004F00085B082468B465846FFF7F5FE8046424659
:100500000B4600201C49FFF77FFE00221B4BCDE964
:100510000001FFF707FE0022194BCDE90201FFF7AA
:1005200001FE06460022164BFFF7FCFD0446FFF7CE
:10053000FBFE049013E00121124800F0D4F8049867
:10054000FFF7DEFE044600F0EEF901210D4800F051
:10055000C8F80498FFF7D4FE044600F0E4F9BAF1B5
:100560000000AAF1010AE6D10121064800F0B9F81D
:1005700005B0BDE8F08F00000000F03F0000E03F54
:1005800000408F40000C014008B50121082000F018
:10059000F5F80120ADF8000003208DF802001020CE
:1005A0008DF803006946024800F007F808BD000016
:1005B000000C014000BFFEE770472DE9F041024604
:1005C00000250026002000230024002791F803C006
:1005D0000CF00F0591F803C00CF0100CBCF1000FEB
:1005E00003D091F802C04CEA050591F800C0BCF1B7
:1005F000000F31D0146800202BE04FF0010C0CFAF2
:1006000000F3B1F800C00CEA03069E4220D183003B
:100610004FF00F0C0CFA03F7BC4305FA03FC4CEA4D
:10062000040491F803C0BCF1280F06D14FF0010C6F
:100630000CFA00FCC2F814C00AE091F803C0BCF147
:10064000480F05D14FF0010C0CFA00FCC2F810C0A5
:10065000401C0828D1D31460B1F800C0BCF1FF0FD2
:1006600034DD546800202EE000F1080C4FF0010842
:1006700008FA0CF3B1F800C00CEA03069E4221D13F
:1006800083004FF00F0C0CFA03F7BC4305FA03FC90
:100690004CEA040491F803C0BCF1280F05D100F125
:1006A000080C08FA0CF8C2F8148091F803C0BCF1E9
:1006B000480F07D100F1080C4FF0010808FA0CF8B8
:1006C000C2F81080401C0828CED35460BDE8F081E9
:1006D0000246002093680B400BB1012000E000208F
:1006E0007047416170470161704700BFFEE700003D
:1006F00008B50121102000F041F84FF40050ADF88A
:10070000000004208DF8030001208DF802006946E6
:100710000148FFF752FF08BD0010014008B5012154
:10072000042000F02BF80120ADF8000004208DF823
:10073000030001208DF8020069460248FFF73DFFE3
:1007400008BD00000008014008B50121082000F0A4
:1007500015F82020ADF8000010208DF803000320CC
:100760008DF8020069460248FFF727FF08BD000028
:10077000000C014000BFFEE77047704729B1064AF0
:1007800092690243044B9A6104E0034A92698243EE
:10079000014B9A617047000000100240704710B58D
:1007A00000F002F810BD00000CB500200190009090
:1007B0003348006840F480303149086000BF304859
:1007C000006800F4003000900198401C01900098EF
:1007D00018B90198B0F5A06FF1D12948006800F46C
:1007E000003010B10120009001E00020009000983E
:1007F000012843D12348006840F0100021490860D7
:100800000846006820F0030008600846006840F0D1
:10081000020008601A484068194948600846406864
:1008200048600846406840F4806048600846406878
:1008300020F47C1048600846406840F4E8104860A6
:100840000846006840F08070086000BF0C480068EF
:1008500000F000700028F9D00948406820F003003B
:10086000074948600846406840F00200486000BF01
:100870000348406800F00C000828F9D10CBD0000C6
:1008800000100240002002407047000010B51348DD
:10089000006840F0010011490860084640681049AE
:1008A00008400E494860084600680E4908400B4958
:1008B00008600846006820F4802008600846406808
:1008C00020F4FE0048604FF41F008860FFF767FFC8
:1008D0004FF000600449086010BD000000100240A5
:1008E0000000FFF8FFFFF6FE08ED00E000BFFEE7A6
:1008F00002E008C8121F08C1002AFAD170477047E9
:10090000002001E001C1121F002AFBD1704710B581
:10091000044603E04FF47A7000F005F8201EA4F1BD
:100920000104F7D110BD014601EBC1024FF0E023F5
:100930005A6100229A6101221A6100BF4FF0E02241
:10094000106900F001021AB100F48032002AF5D0DB
:1009500000224FF0E0231A619A617047FFF7F4FE1E
:10096000FFF7DCFEFFF7C4FEFFF70EFE3DE00121BE
:100970001E48FFF7ADFEB0B91420FFF7C8FF0121F4
:100980001A48FFF7A5FE70B920211948FFF7ABFE02
:1009900000BF01211548FFF79BFE0028F9D0202158
:1009A0001348FFF79EFE4FF400511248FFF790FEE8
:1009B000D8B91420FFF7ABFF4FF400510D48FFF7F3
:1009C00087FE90B94FF47A71C820FFF78FFD00BF02
:1009D0004FF400510748FFF77BFE0028F8D041F2A2
:1009E00088314FF4FA70FFF781FDC0E7000801403D
:1009F000000C014000100140080A0008000000201F
:080A00000004000000090008D9
:04000005080000ED02
:00000001FF
