:020000040800F2
:1000000000040020010100088103000879030008B2
:100010007D030008490100082907000800000000CE
:10002000000000000000000000000000590400086B
:100030004D010008000000001504000845050008F7
:100040001B0100081B0100081B0100081B01000820
:100050001B0100081B010008510100081B010008DA
:100060001B0100081B0100081B0100081B01000800
:100070001B0100081B0100081B0100081B010008F0
:100080001B0100081B0100081B0100081B010008E0
:100090001B0100081B0100081B0100081B010008D0
:1000A0001B0100081B0100081B0100081B010008C0
:1000B0001B0100081B0100081B0100081B010008B0
:1000C0001B0100081B0100081B0100081B010008A0
:1000D0001B0100081B0100081B0100081B01000890
:1000E0001B0100081B0100081B010008DFF80CD0F1
:1000F00000F018F8004800479907000800040020A5
:100100000648804706480047FEE7FEE7FEE7FEE7B1
:10011000FEE7FEE7FEE7FEE7FEE7FEE7490500082B
:10012000ED000008064C074D06E0E06840F00103D2
:1001300094E8070098471034AC42F6D3FFF7DAFF93
:10014000D4070008E407000800BFFEE7704700007E
:1001500010B5012000F01AF801280ED1202107481F
:1001600000F0FCF8C0F10100C4B22246202103488F
:1001700000F0FDF8012000F003F810BD000C014074
:100180000149086070470000140401400146002046
:100190000022074B1B6803EA0102054B14331B685E
:1001A0000B4013B10AB1012000E0002070470000AD
:1001B000000401402DE9F041024600250026002000
:1001C00000230024002791F803C00CF00F0591F8DC
:1001D00003C00CF0100CBCF1000F03D091F802C06A
:1001E0004CEA050591F800C0BCF1000F31D014684D
:1001F00000202BE04FF0010C0CFA00F3B1F800C026
:100200000CEA03069E4220D183004FF00F0C0CFA3B
:1002100003F7BC4305FA03FC4CEA040491F803C05D
:10022000BCF1280F06D14FF0010C0CFA00FCC2F80B
:1002300014C00AE091F803C0BCF1480F05D14FF09B
:10024000010C0CFA00FCC2F810C0401C0828D1D3E5
:100250001460B1F800C0BCF1FF0F34DD5468002019
:100260002EE000F1080C4FF0010808FA0CF3B1F889
:1002700000C00CEA03069E4221D183004FF00F0C10
:100280000CFA03F7BC4305FA03FC4CEA040491F8AA
:1002900003C0BCF1280F05D100F1080C08FA0CF8D6
:1002A000C2F8148091F803C0BCF1480F07D100F1E7
:1002B000080C4FF0010808FA0CF8C2F81080401C36
:1002C0000828CED35460BDE8F0810000F0B50A469E
:1002D000002300240021002500F00046B6F1004F65
:1002E00002D11D4EF16901E01B4E7168C0F3034558
:1002F00083B200F44016B6F5401F08D121F07061BA
:10030000154E766826F07066134F7E6012E000F49A
:100310008016B6F5801F06D1032606FA05F4A14320
:1003200041F0706106E0460D360103FA06F6B1436E
:1003300041F0706122B1460D360103FA06F63143F1
:1003400000F00046B6F1004F02D1034EF16101E02A
:10035000014E7160F0BD0000000001400246002027
:1003600093680B400BB1012000E0002070470AB1F8
:10037000016100E04161704700BFFEE700BFFEE79A
:100380007047000000B589B00121092000F054F841
:100390002020ADF8200018208DF8230003208DF8D0
:1003A000220008A91848FFF705FF0121022000F0EC
:1003B00033F80020ADF81A00ADF8160040F2833093
:1003C000ADF818000020ADF8140005A90F4800F0A2
:1003D00059F901210E48FFF779FF6020ADF80400BC
:1003E0000020ADF80C000120ADF8060001A9074877
:1003F00000F0E6F80821054800F034F9012103482F
:1004000000F0D2F809B000BD000C0140000400402B
:1004100000081A007047000029B1064AD269024359
:10042000044BDA6104E0034AD2698243014BDA618A
:10043000704700000010024029B1064A9269024349
:10044000044B9A6104E0034A92698243014B9A612A
:100450007047000000100240704710B500F002F82D
:1004600010BD00000CB500200190009033480068DA
:1004700040F480303149086000BF3048006800F423
:10048000003000900198401C0190009818B9019824
:10049000B0F5A06FF1D12948006800F4003010B128
:1004A0000120009001E0002000900098012843D135
:1004B0002348006840F010002149086008460068A1
:1004C00020F0030008600846006840F00200086061
:1004D0001A4840681949486008464068486008461C
:1004E000406840F4806048600846406820F47C1012
:1004F00048600846406840F4E810486008460068D4
:1005000040F08070086000BF0C48006800F0007088
:100510000028F9D00948406820F0030007494860E6
:100520000846406840F00200486000BF0348406849
:1005300000F00C000828F9D10CBD000000100240AA
:10054000002002407047000010B51348006840F0DA
:1005500001001149086008464068104908400E49EA
:100560004860084600680E4908400B490860084684
:10057000006820F4802008600846406820F4FE00EF
:1005800048604FF41F008860FFF767FF4FF000607E
:100590000449086010BD0000001002400000FFF890
:1005A000FFFFF6FE08ED00E021B1028842F00102F3
:1005B000028004E002884FF6FE731A400280704702
:1005C00070B5002400220023058C4FF6EF763540ED
:1005D0000584028C8388048B48F6FF752C404FF607
:1005E000FF452C400D884FF6FF7606EA05252C4383
:1005F0004FF6DF752A400D8906EA05152A434D8816
:1006000006EA05152A43154DA84202D0144DA8420A
:100610001DD14FF67F752A404D894FF6FF7606EAC9
:1006200005152A434FF6BF752A408D8806EA051541
:100630002A434FF6FF352B404FF2FF752B408D8933
:1006400006EA85052B43CD8906EA85052B43838081
:100650000483CD880587028470BD0000002C014012
:10066000003401400A460021018B4FF2FF7319400C
:100670004FF6FF7303EA0223194301837047018792
:1006800070470000002202881D4B98420ED01D4B7F
:1006900098420BD0B0F1804F08D01B4B984205D048
:1006A0001A4B984202D01A4B984204D14FF68F73DE
:1006B0001A404B881A43174B984207D0164B984262
:1006C00004D04FF6FF431A40CB881A4302808B8830
:1006D00083850B8803850A4B98420BD0094B9842BF
:1006E00008D00E4B984205D00D4B984202D00D4BCE
:1006F000984201D10B7A0386012383827047000060
:10070000002C01400034014000040040000800407B
:10071000000C004000100040001400400040014068
:10072000004401400048014000BFFEE702E008C865
:10073000121F08C1002AFAD170477047002001E05B
:1007400001C1121F002AFBD1704710B5044603E017
:100750004FF47A7000F005F8201EA4F10104F7D1DF
:1007600010BD014601EBC1024FF0E0235A610022A7
:100770009A6101221A6100BF4FF0E022106900F077
:1007800001021AB100F48032002AF5D000224FF0A5
:10079000E0231A619A617047FFF7F4FD01250024F8
:1007A00015E0012D07D1601C84B240F283308442F1
:1007B00006DB002504E0601E84B2002C00DC01256D
:1007C00021460348FFF75BFF0520FFF7BEFFE8E780
:1007D00000040040E40700080000002000040000BE
:0407E0003C070008CA
:04000005080000ED02
:00000001FF
