:020000040800F2
:1000000018040020010100081D0C000887060008E4
:10001000190C0008EB0400085F1500080000000040
:10002000000000000000000000000000FD0D0008BE
:10003000EF04000800000000A50C0008E90E00080D
:100040001B0100081B0100081B0100081B01000820
:100050001B0100081B010008F10400081B01000837
:100060001B0100081B0100081B0100081B01000800
:100070001B0100081B0100081B0100081B010008F0
:100080001B0100081B0100081B0100081B010008E0
:100090001B0100081B0100081B0100081B010008D0
:1000A0001B0100081B0100081B0100081B010008C0
:1000B0001B0100081B0100081B0100081B010008B0
:1000C0001B0100081B0100081B0100081B010008A0
:1000D0001B010008A51200081B0100081B010008F5
:1000E0001B0100081B0100081B010008DFF80CD0F1
:1000F00000F0CAF9004800479115000818040020D4
:100100000648804706480047FEE7FEE7FEE7FEE7B1
:10011000FEE7FEE7FEE7FEE7FEE7FEE7ED0E00087E
:10012000ED0000082DE9FE4F81EA030404F00044CD
:1001300021F0004100944FF0000B23F0004350EAFF
:1001400001045ED052EA03045BD0C3F30A54C1F346
:100150000A552C44A4F2F3340194A0FB0254C1F3D9
:10016000130141F48011C3F3130343F4801301FB23
:10017000024400FB034E840A970A44EA815447EA8A
:100180008357A4FB076802958D0A05FB07854FEA94
:10019000932C04FB0C542705029D4FEA065847EAAE
:1001A0001637B5EB08056EEB070C870E920E47EA83
:1001B000811742EA8312A7FB0201B6EB0B0164EB45
:1001C00000042B0D43EA0C335E1844EB1C50DA4656
:1001D0005146E7FB0201C5F313044FEA0B3343EA30
:1001E00014534FEA0432019C43EA0603A4F10C04C1
:1001F0000294009CCDE900B400F0F8F803B0BDE82B
:10020000F08F00200146F9E72DE9F04D81EA030463
:1002100004F0004B21F0004514464FF0000A23F093
:10022000004150EA050220D054EA01021DD0C5F376
:100230000A570246C5F31303C1F31300C1F30A566C
:1002400040F4801543F48013A7EB0608101BD64634
:1002500008F2FD3873EB050002D308F1010801E054
:1002600092185B41B8F1000F03DA00200146BDE8A7
:10027000F08D00204FF48011064684460EE0171BD7
:1002800073EB050705D3121B63EB050306434CEA2A
:10029000010C49084FEA300092185B4150EA01070F
:1002A000EDD152EA030012D082EA040083EA05018C
:1002B000084305D0101BAB4106D20122002306E003
:1002C00000224FF0004302E06FF0010253101AEBDE
:1002D00006004CEB085110EB0A0041EB0B01BDE8A6
:1002E000F04D00F074B80EB540F233410291002198
:1002F000CDE900110A460B4600F078F803B000BDC6
:1003000020F00040C10DC0F3160040F400007F292A
:1003100001DA00207047962903DCC1F19601C8403C
:10032000704796398840704701F0004330B421F09F
:10033000004150EA010206D00A0DA2F56072C1F335
:100340001301002A02DC30BC00207047440F44EA4D
:10035000C104C100E01830BC00EBC250AFF3008014
:100360000029A8BF7047401C490008BF20F00100C9
:10037000704710B4B0FA80FC00FA0CF050EA0104A7
:1003800004BF10BC704749B1CCF1200421FA04F439
:1003900011FA0CF118BF012121430843A3EB0C0112
:1003A000CB1D4FEA00614FEA102042BF002010BC75
:1003B000704700EBC35010440029A4BF10BC704725
:1003C000401C490008BF20F0010010BC704710B568
:1003D000141E73F1000408DA401C41F10001921868
:1003E0005B411A4301D120F0010010BD2DE9F04D11
:1003F00092469B4611B1B1FA81F202E0B0FA80F266
:100400002032904600F052F804460F4640EA0A00B7
:1004100041EA0B0153465A46084313D0114653EAAA
:10042000010019D0C8F14002504600F04EF80546D0
:100430000E4650465946424600F038F8084305D06B
:10044000012004E020463946BDE8F08D0020054338
:1004500046EAE0762C4337430A986305E40AA0EBAA
:1004600008000022FD0A44EA47540A3002D5002061
:100470000146E9E7010510196941DDE90845001960
:100480006941BDE8F04DA2E7064C074D06E0E06883
:1004900040F0010394E8070098471034AC42F6D3CB
:1004A000FFF728FEDC250008FC250008202A04DBD5
:1004B000203A00FA02F1002070479140C2F1200377
:1004C00020FA03F3194390407047202A04DB203AB6
:1004D00021FA02F00021704721FA02F3D040C2F164
:1004E0002002914008431946704700BFFEE770475D
:1004F00010B5012000F01AF801280ED1202107487C
:1005000000F0B3F8C0F10100C4B222462021034834
:1005100000F0B4F8012000F003F810BD000C014019
:1005200001490860704700001404014001460020A2
:100530000022074B1B6803EA0102054B14331B68BA
:100540000B4013B10AB1012000E000207047000009
:10055000000401402DE9F04102460025002600205C
:1005600000230024002791F803C00CF00F0591F838
:1005700003C00CF0100CBCF1000F03D091F802C0C6
:100580004CEA050591F800C0BCF1000F31D01468A9
:1005900000202BE04FF0010C0CFA00F3B1F800C082
:1005A0000CEA03069E4220D183004FF00F0C0CFA98
:1005B00003F7BC4305FA03FC4CEA040491F803C0BA
:1005C000BCF1280F06D14FF0010C0CFA00FCC2F868
:1005D00014C00AE091F803C0BCF1480F05D14FF0F8
:1005E000010C0CFA00FCC2F810C0401C0828D1D342
:1005F0001460B1F800C0BCF1FF0F34DD5468002076
:100600002EE000F1080C4FF0010808FA0CF3B1F8E5
:1006100000C00CEA03069E4221D183004FF00F0C6C
:100620000CFA03F7BC4305FA03FC4CEA040491F806
:1006300003C0BCF1280F05D100F1080C08FA0CF832
:10064000C2F8148091F803C0BCF1480F07D100F143
:10065000080C4FF0010808FA0CF8C2F81080401C92
:100660000828CED35460BDE8F0810246002093688C
:100670000B400BB1012000E0002070470AB101617E
:1006800000E04161704700BFFEE7000010B51C4864
:10069000806940F010001A4988611A4800684FF0DC
:1006A000333018490860084640686FF31300164954
:1006B0000843144948600846C06820F40060C860D8
:1006C00043F6982000F05CFF0E48C06840F480506C
:1006D0000C49C8600846C06840F40070C86008460D
:1006E000C06840F48070C8600846C06840F480600C
:1006F000C8600846C06840F40060C86010BD0000D3
:1007000000100240001001403333030010B50446CE
:100710000A48C06820F0FF0020430849C860084626
:10072000C06820F40070C860012000F029FF034871
:10073000C06840F400700149C86010BD001001405D
:1007400038B5044680239F2200210846009400F01B
:10075000DBF938BD08B50121102000F0C5FA1020E2
:100760008DF8030003208DF802004FF6FF70ADF8FE
:10077000000069460148FFF7EDFE08BD001001408A
:1007800010B5FFF783FF0221012000F0FDF986215B
:10079000022000F0F9F90021032000F0F5F908210A
:1007A000052000F0F1F97F21072000F0EDF9172175
:1007B000082000F0E9F90021092000F0E5F9002106
:1007C000102000F0E1F97F21112000F0DDF99F21D8
:1007D000122000F0D9F90021142000F0D5F99F2152
:1007E000162000F0D1F90121172000F0CDF90021E9
:1007F000182000F0C9F90021192000F0C5F988215E
:10080000212000F0C1F93321222000F0BDF9CC21D4
:10081000232000F0B9F9CC21242000F0B5F9BB2148
:10082000252000F0B1F9BB21262000F0ADF9772199
:10083000272000F0A9F97721282000F0A5F97721D9
:10084000292000F0A1F9C721062000F09DF910BD74
:100850002DE9F04F8DB004468946924601210846A5
:1008600000F022FA0121042000F03EFA0420ADF845
:100870002C0018208DF82F0003208DF82E000BA9D6
:100880002648FFF767FE4FF0804000F06BFBADF8A5
:100890002440ADF820900020ADF82600ADF82200ED
:1008A0008DF8280008A94FF0804000F0A9FC7020C6
:1008B000ADF810000120ADF812000020ADF81800CE
:1008C0002046FFF710FDCDE902015046FFF70BFD72
:1008D00007460022124BFFF797FCCDE90001DDE946
:1008E0000223FFF71FFC0546FFF71EFD834658460F
:1008F000FFF706FD80B2ADF8160004A94FF0804066
:1009000000F024FC0821C80600F070FC01218807D3
:1009100000F01CFB0DB0BDE8F08F000000080140A6
:10092000000059402DE9F84305460E461746984603
:10093000089C0A48007838B143463A463146284672
:10094000009400F06BF806E043463A4631462846EC
:10095000009400F005F8BDE8F883000014000020C2
:100960002DE9F05F04460D4616461F46DDF8289037
:1009700005F10F0C0CF0FF0304F1070C0CF0FF0263
:10098000E9B2E0B200F028F92248C06820F48050B3
:100990002049C8600846C06840F48070C8600846B6
:1009A000C06840F48060C8604FF0000826E008EBA3
:1009B0000610194911F800B04FF0000A19E00BF0C9
:1009C0008000802807D1C7F30720FFF79FFEF8B209
:1009D000FFF79CFE07E0C9F30720FFF797FE09F039
:1009E000FF00FFF793FE4FEA4B604FEA106B0AF1EE
:1009F000010ABAF1080FE2D308F10108B8F1100FAB
:100A0000D5D30448C06840F480500249C860BDE8AE
:100A1000F09F000000100140D41500082DE9F05FA0
:100A200004460D4690461E46DDF8289005F1070C59
:100A30000CF0FF0304F1070C0CF0FF02E9B2E0B286
:100A400000F0CAF82048C06820F480501E49C860F1
:100A50000846C06840F48070C8600846C06840F42A
:100A60008060C860002725E0184800EBC80010F837
:100A700007B04FF0000A19E00BF08000802807D182
:100A8000C6F30720FFF742FEF0B2FFF73FFE07E094
:100A9000C9F30720FFF73AFE09F0FF00FFF736FE23
:100AA0004FEA4B604FEA106B0AF1010ABAF1080FE6
:100AB000E2D37F1C082FD7D30348C06840F480508E
:100AC0000149C860BDE8F09F00100140D41D000836
:100AD0002DE9F84306460F4614469846DDF8209067
:100AE00000250CE0CDF80090227806EBC50188B215
:100AF00043463946FFF716FF641C681CC5B22078D0
:100B00000028EFD1BDE8F8832DE9F04704460D46F3
:100B100016461F46DDF82080FBB2F2B2E9B2E0B221
:100B200000F05AF81748C06820F480501549C86092
:100B30000846C06840F48070C8600846C06840F449
:100B40008060C8604FF0000911E04FF0000A09E032
:100B5000C8F30720FFF7DAFD08F0FF00FFF7D6FD26
:100B60000AF1010A781B5045F2DA09F10109301B3C
:100B70004845EADA0348C06840F480500149C8603B
:100B8000BDE8F0870010014070B504460D461148DD
:100B9000C06820F480500F49C8600846C06840F41F
:100BA0008070C8600846C06820F48060C860E0B209
:100BB000FFF7ACFD0748C06840F480600549C86095
:100BC000E8B2FFF7A3FD0348C06840F48050014934
:100BD000C86070BD001001402DE9F04104460F4689
:100BE00015461E4639460920FFF7CEFF2146102044
:100BF000FFF7CAFF31461120FFF7C6FF2946122032
:100C0000FFF7C2FF39461820FFF7BEFF2146192023
:100C1000FFF7BAFFBDE8F08100BFFEE770470000B4
:100C200070B5002100230F22C47804B3154C24684A
:100C300004F4E064C4F5E064210AC1F10403CA408D
:100C4000447804FA03F184781440214309010E4CDE
:100C50000678A155047804F01F050124AC400578FE
:100C60006D11AD0005F1E025C5F8004109E00478FB
:100C700004F01F050124AC40044D0678761145F8B8
:100C8000264070BD0CED00E000E400E080E100E0F3
:100C900002490143024A1160704700000000FA0552
:100CA0000CED00E07047000029B1064AD26902430A
:100CB000044BDA6104E0034AD2698243014BDA61F2
:100CC000704700000010024029B1064A1269024331
:100CD000044B1A6104E0034A12698243014B1A6112
:100CE000704700000010024029B1064A9269024391
:100CF000044B9A6104E0034A92698243014B9A6172
:100D0000704700000010024029B1064AD268024331
:100D1000044BDA6004E0034AD2688243014BDA6094
:100D2000704700000010024030B50021002200246E
:100D300000232D4D6D6805F00C0121B1042905D06B
:100D4000082923D105E0294D056022E0274D0560E3
:100D50001FE0254D6D6805F47012234D6D6805F494
:100D60008034022505EB92421CB9214D55430560A4
:100D70000BE01D4D6D6805F400351DB11C4D55434C
:100D8000056002E0194D5543056002E0174D05600E
:100D900000BF00BF144D6D6805F0F0010909154D45
:100DA0006B5C0568DD4045600F4D6D6805F4E061E2
:100DB000090A104D6B5C4568DD4085600A4D6D6821
:100DC00005F46051C90A0B4D6B5C4568DD40C56098
:100DD000054D6D6805F44041890B074D6B5CC56896
:100DE000B5FBF3F5056130BD0010024000127A003A
:100DF00000093D000000002010000020704710B5E1
:100E000000F002F810BD00000CB500200190009029
:100E10003348006840F480303149086000BF3048F2
:100E2000006800F4003000900198401C0190009888
:100E300018B90198B0F5A06FF1D12948006800F405
:100E4000003010B10120009001E0002000900098D7
:100E5000012843D12348006840F010002149086070
:100E60000846006820F0030008600846006840F06B
:100E7000020008601A4840681949486008464068FE
:100E800048600846406840F4806048600846406812
:100E900020F47C1048600846406840F4E810486040
:100EA0000846006840F08070086000BF0C48006889
:100EB00000F000700028F9D00948406820F00300D5
:100EC000074948600846406840F00200486000BF9B
:100ED0000348406800F00C000828F9D10CBD000060
:100EE00000100240002002407047000010B5134877
:100EF000006840F001001149086008464068104948
:100F000008400E494860084600680E4908400B49F1
:100F100008600846006820F48020086008464068A1
:100F200020F4FE0048604FF41F008860FFF767FF61
:100F30004FF000600449086010BD0000001002403E
:100F40000000FFF8FFFFF6FE08ED00E021B1028887
:100F500042F00102028004E002884FF6FE731A405C
:100F60000280704710B504466848844208D10121C8
:100F7000C014FFF7C9FE0021E014FFF7C5FEC4E06E
:100F8000B4F1804F08D101210846FFF79DFE0021F2
:100F90000120FFF799FEB8E05D48844208D10121A5
:100FA0000220FFF791FE00210220FFF78DFEACE04A
:100FB0005848844208D101210420FFF785FE002112
:100FC0000420FFF781FEA0E05348844208D10121AC
:100FD0000820FFF779FE00210820FFF775FE94E056
:100FE0004E48844208D101211020FFF76DFE0021F8
:100FF0001020FFF769FE88E04948844208D10121AA
:101000002020FFF761FE00212020FFF75DFE7CE03D
:101010004448844208D101214014FFF775FE0021A5
:101020006014FFF771FE70E03F48844209D101214E
:10103000C804FFF769FE00214FF40020FFF764FEAB
:1010400063E03A48844209D101210805FFF75CFEBC
:1010500000214FF48010FFF757FE56E034488442D9
:1010600009D101214805FFF74FFE00214FF4001080
:10107000FFF74AFE49E02F48844208D10121402071
:10108000FFF722FE00214020FFF71EFE3DE02A4828
:10109000844208D101218020FFF716FE0021802024
:1010A000FFF712FE31E02548844208D10121801566
:1010B000FFF70AFE0021A015FFF706FE25E02048F5
:1010C000844209D101210804FFF71EFE00214FF4DC
:1010D0008030FFF719FE18E01A48844209D1012137
:1010E0004804FFF711FE00214FF40030FFF70CFE1B
:1010F0000BE01548844208D101218804FFF704FE63
:1011000000214FF48020FFF7FFFD10BD002C0140AF
:101110000004004000080040000C004000100040A7
:101120000014004000340140004C014000500140D8
:101130000054014000180040001C00400020004006
:1011400000400140004401400048014070B50024C7
:1011500000220023058C4FF6FF6635400584028C83
:101160008388848B4FF68F752C404FF6FC752C408E
:101170000D882C434FF6FF552A400D894FF6FF7618
:1011800006EA05252A434D8806EA05252A43154D1A
:10119000A84202D0144DA8421DD14FF2FF752A403B
:1011A0004D894FF6FF7606EA05252A434FF6FF35AF
:1011B0002A408D8806EA05252A434EF6FF752B4006
:1011C0004DF6FF752B408D8906EA05152B43CD8919
:1011D00006EA05152B4383808483CD8885870284A6
:1011E00070BD0000002C0140003401400A4600217F
:1011F000818B4FF6F77319401143818370470000CC
:10120000002202881D4B98420ED01D4B98420BD0F5
:10121000B0F1804F08D01B4B984205D01A4B984232
:1012200002D01A4B984204D14FF68F731A404B8864
:101230001A43174B984207D0164B984204D04FF6EA
:10124000FF431A40CB881A4302808B8883850B8822
:1012500003850A4B98420BD0094B984208D00E4B9D
:10126000984205D00D4B984202D00D4B984201D1C7
:101270000B7A03860123838270470000002C014013
:10128000003401400004004000080040000C004011
:1012900000100040001400400040014000440140A4
:1012A0000048014010B540F22551074800F096F87B
:1012B00040B140F22551044800F075F8024800F0B2
:1012C00049F9C4B210BD00000038014010B588B023
:1012D000044601210420FFF707FD01218803FFF7E1
:1012E00003FD01210846FFF7FFFC4FF40070ADF845
:1012F0001C0003208DF81E0018208DF81F0007A980
:101300002248FFF727F94FF48060ADF8180003205A
:101310008DF81A0004208DF81B0006A91B48FFF762
:1013200019F902940020ADF80C00ADF80E00ADF8EC
:101330001400ADF810000C20ADF8120002A91448FA
:1013400000F09CF80121124800F03CF820211048E0
:1013500000F020F8012240F225510D4800F068F815
:101360004FF4C060FFF794FC25208DF804000120A5
:101370008DF8050000208DF8060001208DF807008B
:1013800001A8FFF74DFC08B010BD000000080140A7
:101390000038014001F40072B2F5007F00D100BFB7
:1013A000CA430280704710B50022002340F66A1439
:1013B000A14200D100BF0A1201249440A3B2DC4331
:1013C000048010BD21B1828942F40052828104E080
:1013D00082894DF6FF731A408281704770B50246CC
:1013E000002400230025002040F66A16B14200D1F7
:1013F00000BFC1F3421501F01F03012606FA03F3F3
:10140000012D02D19689334006E0022D02D1168AC1
:10141000334001E0968A33400C12012606FA04F4A8
:101420001688344013B10CB1012000E0002070BDDB
:10143000F0B50346002400260025002040F66A1778
:10144000B94200D100BF1846C1F3421401F01F0693
:10145000012707FA06F5012C01D10C3004E0022C1B
:1014600001D1103000E014301AB107682F43076033
:1014700002E00768AF430760F0BD00002DE9F047C8
:1014800086B005460E460024A24600BFA1460027AE
:10149000B08900B100BF2F462C8A4CF6FF70044083
:1014A000F08804432C82AC894EF6F3100440B088D7
:1014B00031890843718908430443AC81AC8A4FF6F3
:1014C000FF400440B0890443AC8201A8FFF72CFC24
:1014D0001F48874202D1DDF810A001E0DDF80CA022
:1014E000A88900F4004040B10AEBCA0000EB0A10E2
:1014F00031684900B0FBF1F807E00AEBCA0000EBE5
:101500000A1031688900B0FBF1F86420B8FBF0F0F4
:1015100004012009642101FB1089A88900F400401E
:1015200040B1322000EBC900B0FBF1F000F0070041
:10153000044308E0322000EB09106421B0FBF1F015
:1015400000F00F0004432C8106B0BDE8F0870000D6
:101550000038014001468888C0F30800704700BF8A
:10156000FEE702E008C8121F08C1002AFAD170473E
:101570007047002001E001C1121F002AFBD1704713
:1015800000BF00BF011EA0F10100FBD170470000A9
:1015900008B54FF4E130FFF799FE50220021642096
:1015A000FFF756F9FFF7D6F8FFF7EAF80020FFF744
:1015B000C7F805A400204FF4784322460146009066
:1015C000FFF786FA00BFFEE748656C6C6F20776F07
:1015D0007264210000000000000000000000000014
:1015E00000000000000000000000000000000000FB
:1015F00000000000000000000000000000000000EB
:1016000000000000000000000000000000000000DA
:1016100000000000000000000000000000000000CA
:1016200000000000000000000000000000000000BA
:1016300000000000000000000000000000000000AA
:10164000000000000000000000000000000000009A
:10165000000000000000000000000000000000008A
:10166000000000000000000000000000000000007A
:10167000000000000000000000000000000000006A
:10168000000000000000000000000000000000005A
:10169000000000000000000000000000000000004A
:1016A000000000000000000000000000000000003A
:1016B000000000000000000000000000000000002A
:1016C000000000000000000000000000000000001A
:1016D000000000000000000000000000000000000A
:1016E00000000000000000000000000000000000FA
:1016F00000000000000000000000000000000000EA
:1017000000000000000000000000000000000000D9
:1017100000000000000000000000000000000000C9
:1017200000000000000000000000000000000000B9
:1017300000000000000000000000000000000000A9
:101740000000000000000000000000000000000099
:101750000000000000000000000000000000000089
:101760000000000000000000000000000000000079
:101770000000000000000000000000000000000069
:101780000000000000000000000000000000000059
:101790000000000000000000000000000000000049
:1017A0000000000000000000000000000000000039
:1017B0000000000000000000000000000000000029
:1017C0000000000000000000000000000000000019
:1017D0000000000000000000000000000000000009
:1017E0000000000000000010101010101000101079
:1017F000000000000000002424240000000000007D
:101800000000000000000024247E2424247E2424E0
:1018100000000000000000107C90907C12127C10F0
:10182000000000000000000062640810204C8C00E2
:101830000000000000000000182420508A844A3074
:101840000000000000000010102000000000000058
:101850000000000000000810202020202020201080
:1018600008000000000020100808080808080810F8
:101870002000000000000000001054383854100010
:1018800000000000000000000010107C101000009C
:101890000000000000000000000000000000101028
:1018A00020000000000000000000007C000000009C
:1018B0000000000000000000000000000000001018
:1018C000000000000000000000020408102040009A
:1018D000000000000000003844444C546444443884
:1018E0000000000000000010301010101010103820
:1018F0000000000000000038440404081020407C70
:10190000000000000000007C040810380404047883
:101910000000000000000008182848487C0808085B
:10192000000000000000007C40404078040404787F
:10193000000000000000003C40404078444444382F
:10194000000000000000007C04040810202020207B
:101950000000000000000038444444384444443847
:1019600000000000000000384444443C04040438F3
:101970000000000000000000000000100000100047
:101980000000000000000000000000001000101027
:1019900020000000000000000004081020100804CF
:1019A00000000000000000000000007C007C00003F
:1019B00000000000000000000020100804081020B3
:1019C000000000000000384444040810100010100B
:1019D00000000000000000000038445C545C403C03
:1019E00000000000000018244242427E424242426F
:1019F0000000000000007C4242427C424242427CA5
:101A00000000000000003C42404040404040423C5A
:101A10000000000000007C42424242424242427CBE
:101A20000000000000007E40404078404040407E82
:101A30000000000000007E404040784040404040B0
:101A40000000000000003C4240405E424242423CF6
:101A5000000000000000424242427E4242424242B6
:101A60000000000000003810101010101010103886
:101A70000000000000001C0808080808080848309A
:101A8000000000000000424448506060504844425A
:101A90000000000000004040404040404040407E88
:101AA0000000000000008282C6C6AAAA929282822A
:101AB00000000000000042626252524A4A4646421A
:101AC0000000000000003C42424242424242423C8E
:101AD0000000000000007C424242427C4040404006
:101AE0000000000000003C424242424242424A3C66
:101AF0000E00000000007C424242427C50484442BA
:101B00000000000000003C4240403C020202423C17
:101B10000000000000007C101010101010101010B9
:101B20000000000000004242424242424242423C27
:101B300000000000000044444444282828101010ED
:101B40000000000000008282828254545428282819
:101B500000000000000042422418181824244242C9
:101B600000000000000044444444282810101010D5
:101B70000000000000007E02020408102040407EA9
:101B800000000000000038202020202020202038E5
:101B900000000000000000000000402010080402C7
:101BA0000000000000001C04040404040404041CDD
:101BB00000000000000000001028440000000000A9
:101BC0000000000000000000000000000000000015
:101BD000FF000000000000101008000000000000DE
:101BE00000000000000000000078043C4444443A37
:101BF0000000000000004040405C62424242625CE3
:101C00000000000000000000003C42404040423C18
:101C10000000000000000202023A46424242463AF8
:101C20000000000000000000003C42427E40423CB8
:101C30000000000000000E1010103C1010101010DA
:101C40000000000000000000003E424242423E020E
:101C5000023C000000004040405C6242424242427E
:101C60000000000000000008000808080808080834
:101C70000000000000000004000404040404040444
:101C8000443800000000404040424448506844420C
:101C900000000000000010101010101010101010A4
:101CA000000000000000000000EC929292929292DC
:101CB0000000000000000000007C4242424242421C
:101CC0000000000000000000003C42424242423C52
:101CD0000000000000000000005C62424242625CC2
:101CE0004040000000000000003A46424242463AAE
:101CF0000202000000000000005C624040404040E2
:101D00000000000000000000003C42403C02423C59
:101D10000000000000000020207820202020221C4D
:101D20000000000000000000004242424242423EE9
:101D3000000000000000000000424242424224181D
:101D40000000000000000000008282829292AA44FB
:101D5000000000000000000000424224182442421B
:101D600000000000000000000042424242423E02E9
:101D7000023C000000000000007E02041820407EAB
:101D8000000000000000081010102040201010106B
:101D9000080000000010101010101010101010108B
:101DA000101010000000201010100804081010106F
:101DB0002000000000000000000022548800000005
:101DC0000000000000000000000000000000000013
:101DD000000000007FC4DEC6F6C67F00FF44D5C405
:101DE000D4D5FF00FC466E6EEE6EFC007FF1F7F17D
:101DF000FDF17F00FF11B5B5B5B1FF00FC1E5E1E01
:101E00007E7EFC007FC5EDEDEDED7F00FF74255477
:101E10007574FF00FC46D646CE56FC007FF1F5F502
:101E2000F5F17F00FC6E2E4E6E6EFC007FC4D5D4A3
:101E3000D5C57F00FC46DE46DEDEFC00000000006B
:101E400000E0E0E0183C3CFF7E180000081C222265
:101E50003649221C4EB1501010110E00FF42422490
:101E600024181800FF7E7E3C3C1818000018182427
:101E7000244242FF0018183C3C7E7EFF0102040809
:101E8000102040808040201008040201427E5A1831
:101E9000BDFF8100223F421E123F0202182442BDB4
:101EA000142448187222F62777A32224007F494978
:101EB0007F4143000008047E040800000010207EDB
:101EC00020100000103854101010100010101010C6
:101ED0005438100000000000000000001010101026
:101EE000100010002828280000000000247E242470
:101EF000247E2400103C503814781000225424080A
:101F000012152200205050304A443A0008081000B0
:101F100000000000081020202010080020100808F1
:101F200008102000082A1C081C2A08000008083E87
:101F30000808000000000000080810000000000071
:101F40003C00000000000000000010000102040836
:101F5000102040003E43454951613E0008180808E2
:101F6000080808003C42021C20407E003C42023C23
:101F700002423C0008182848487E08007E40407C09
:101F800002027C003C40407C42423C007E02040451
:101F9000080808003C42423C42423C003C42423E6F
:101FA00002423C0000001000001000000000100081
:101FB00000102000040810201008040000007C001D
:101FC000007C000020100804081020001C220204DD
:101FD000080008001C225D534F221C001C224141B6
:101FE0007F4141007E41417E41417E003E41404073
:101FF00040413E007E41414141417E007F40407E64
:1020000040407F007F40407C404040003E41404F88
:1020100041413E004141417F414141001C080808C7
:1020200008081C001C080808084830004448506094
:10203000504844004040404040407F004163554983
:102040004141410041615149454341003E414141C7
:1020500041413E007E41417E404040003E41414181
:1020600045423D007E41417E444241003E41403E6A
:1020700001413E007F08080808080800414141412D
:1020800041413E0041414141221408004141414942
:1020900055634100412214081422410041221408D2
:1020A000080808007F02040810207F003820202044
:1020B000202038004428107C107C100038080808C4
:1020C000080838001028440000000000000000004C
:1020D00000007F0000000000000000000000380445
:1020E0003C443A0000202038242438000000003806
:1020F000404038000404041C24241C000000384420
:102100007C4038000008103810101000000018241F
:102110001C04380000202038242424001000101053
:1021200010101000080008080808300000202428BB
:102130003028240010101010101038000000007813
:1021400054545400000000382424240000000030BF
:10215000484830000038242438202000001C242463
:102160001C0404000000283020202000000018205B
:102170001008300000001038101018000000002473
:10218000242418000000002222140800000000444B
:102190004454280000004428102844000024241C33
:1021A000040418000000003C08103C001810102027
:1021B000101018001010101010101000180808044B
:1021C00008081800001428000000000000000000AB
:1021D00000000000000000FF0000000010101010C0
:1021E000101010100000001F10101010000000F060
:1021F00010101010101010F0000000001010101F30
:10220000000000001010101F10101010000000FF40
:1022100010101010101010F010101010101010FFEF
:1022200000000000101010FF101010103C428181BF
:102230008181423C3C7EFFFFFFFF7E3C10107C1002
:1022400010007C00102844824428100010387CFEC6
:102250007C381000FF818181818181FFFFFFFFFFBA
:10226000FFFFFFFF49221449142249007F007F0825
:10227000080808003F202020A06020001018141437
:10228000307020000102040810207F000022140892
:10229000142200000008003E00080000235454747B
:1022A00054545300635454545454630090D0D0B7E2
:1022B000B5959700E14149555D514D001C36777742
:1022C000777F361C00000054000000003C4299A1BA
:1022D000A199423C2020382424283000000000002E
:1022E000205020001C1010101000000000000808F2
:1022F000080838000000000020100800000000005E
:10230000100000007F017F02020418000000003E60
:102310000A0810000000000C701010000000107C73
:10232000440418000000007C10107C000000107CA9
:1023300010305000000000207C24200000000038F5
:1023400008087C0000007C043C047C000000005471
:1023500054040800000000403F0000007F0109080D
:10236000080810000106186808080800087F4101E5
:10237000020408003E08080808087F00027F060AD9
:1023800012224200107F111111210200107E087EDE
:10239000080404003F21410202040800203F4404D5
:1023A000040408007F01010101017F00227F222235
:1023B0000404180071017102020C70007F0204080D
:1023C00014224100207F212220201F0041210102F0
:1023D000020418003F21215F01020C003E04047F2B
:1023E0000404080010492102020478007F00007FE5
:1023F00008081000404040704C404000087F08082A
:10240000101020007E00000000007E007F010214FA
:1024100008146000087F021C2A490800010102021A
:1024200004186000002022224141410040407E40CB
:1024300040403F007F01010202043800102844029E
:1024400001000000087F082A494908007F01022492
:10245000180804003C00003C00003E00101010244E
:102460002246790002022414081460007E107E10B7
:1024700010100E00107F111208080800003E020222
:1024800002027F007F01017F01017F003E007F018A
:10249000020C300042424202040418000828282896
:1024A000292A4C0020202021222C30007F4141414C
:1024B00041417F007F414102020418007001010187
:1024C000020C700010482000000000002050200086
:1024D000000000007F41417F41417F003F213F21BB
:1024E0003F4141000849490814146300080B7C2A45
:1024F0004A091800087F1C2A2A490800083E5D3E48
:102500002A3E7F0008083E0808087F00000000FF00
:1025100000FF000014141414141414140000000F0D
:1025200010131414000000F804E41414141414E438
:1025300004F8000014141413100F000014141417DE
:1025400010171414000000FF00F71414141414F4EE
:1025500004F41414141414F700FF0000141414F7F6
:1025600000F714142030383C38302000040C1C3C98
:102570001C0C040000007F3E1C0800000000081C2A
:102580003E7F00007F41554955417F007F414141D9
:1025900041417F00011A2644444A3100182424385E
:1025A000246438007E20100810207E003C42424205
:1025B00024246600242424243C204000FF818595A7
:1025C000BD81FF001C2249494D41221C3C42A5818E
:1025D000A599423C0000000000000000FC25000816
:1025E00000000020180000006215000814260008F2
:1025F0001800002000040000721500080000000010
:102600000102030401020304060708090204060884
:0426100000000000C6
:04000005080000ED02
:00000001FF
