:020000040800F2
:100000006806002091010008950600081D040008FC
:100010009106000895030008DB08000800000000B6
:100020000000000000000000000000009906000829
:10003000990300080000000097060008A5070008C3
:10004000AB010008AB010008AB010008AB010008E0
:10005000AB010008AB0100089D030008AB010008DC
:10006000AB010008AB010008AB010008AB010008C0
:10007000AB010008AB010008AB010008AB010008B0
:10008000AB010008AB010008AB010008AB010008A0
:10009000AB010008AB010008AB010008AB01000890
:1000A000AB010008AB010008AB010008AB01000880
:1000B000AB010008AB010008AB010008AB01000870
:1000C000AB010008AB010008AB010008AB01000860
:1000D000AB01000809080008AB010008AB010008EB
:1000E000AB010008AB010008AB01000800F002F80A
:1000F00000F03FF80AA090E8000C82448344AAF183
:100100000107DA4501D100F034F8AFF2090EBAE880
:100110000F0013F0010F18BFFB1A43F0010318473B
:100120003818000058180000103A24BF78C878C169
:10013000FAD8520724BF30C830C144BF04680C60ED
:10014000704700000023002400250026103A28BF35
:1001500078C1FBD8520728BF30C148BF0B60704739
:10016000632900F0AB80002070471FB51FBD10B59C
:1001700010BD00F0DDF81146FFF7F7FF00F0CCFBF3
:1001800000F0FBF803B4FFF7F2FF03BC00F0A7FB9D
:100190000948804709480047FEE7FEE7FEE7FEE71B
:1001A000FEE7FEE7FEE7FEE7FEE7FEE70448054957
:1001B000054A064B70470000A9070008ED0000083B
:1001C0006800002068060020680200206802002005
:1001D0000FB4044910B503AA029800F07BF810BCD4
:1001E0005DF814FB000000202DE9F0410E460446A6
:1001F000002020622046E168884730B3252805D0DA
:10020000D4E901219047206A401CF2E7E1682046CA
:1002100000278847050018D0A5F14100192802D809
:1002200020354FF400673246294620462760FFF705
:1002300097FF40B1012804D0F61D26F007060836C6
:10024000D8E7361DD6E72846DAE7206ABDE8F08110
:1002500070B50C460546012A05D02878800600D5E1
:10026000EA69002302E0012305E05B1C934202D20D
:10027000E05C0028F9D1A869E618C01AA861286ACC
:10028000184428622846AFF3008004E0D5E9012134
:1002900014F8010B9047B442F8D32846AFF300801E
:1002A00070BD70477047704710B5436913B1AFF325
:1002B000008001E0FFF7CCFF012010BD127800F1B3
:1002C00024010A7000224A700122EDE711684FF004
:1002D000FF32E9E7074B70B50D467B4400F011F89B
:1002E0000446284600F020F810B14FF0FF3070BDF2
:1002F000204670BD1706000001694A1C026108789B
:10030000704700B58FB0CDE9013100210591054955
:100310007944CDE9031011466846FFF765FF0FB039
:1003200000BD0000E5FFFFFF007B00F0800070478C
:10033000754600F02BF8AE4605006946534620F09E
:100340000700854618B020B5FFF730FFBDE8204014
:100350004FF000064FF000074FF000084FF0000B81
:1003600021F00701AC46ACE8C009ACE8C009ACE834
:10037000C009ACE8C0098D46704710B50446AFF31C
:1003800000802046BDE81040FFF7FCBE00487047E3
:100390000800002000BFFEE77047000010B50120F4
:1003A00000F01AF801280ED12021074800F028F8A3
:1003B000C0F10100C4B222462021034800F029F810
:1003C000012000F003F810BD000C01400149086055
:1003D0007047000014040140014600200022074B32
:1003E0001B6803EA0102054B14331B680B4013B171
:1003F0000AB1012000E00020704700000004014025
:100400000246002093680B400BB1012000E0002061
:1004100070470AB1016100E04161704700BFFEE72B
:1004200010B504460A48C06820F0FF002043084980
:10043000C8600846C06820F40070C860012000F061
:1004400051FA0348C06840F400700149C86010BD0B
:10045000001001402DE9F84305460E461746984620
:10046000089C0A48007838B143463A463146284647
:10047000009400F06BF806E043463A4631462846C1
:10048000009400F005F8BDE8F883000004000020A7
:100490002DE9F05F04460D4616461F46DDF828900C
:1004A00005F10F0C0CF0FF0304F1070C0CF0FF0238
:1004B000E9B2E0B200F0CCF82248C06820F48050E5
:1004C0002049C8600846C06840F48070C86008468B
:1004D000C06840F48060C8604FF0000826E008EB78
:1004E0000610194911F800B04FF0000A19E00BF09E
:1004F0008000802807D1C7F30720FFF791FFF8B2EB
:10050000FFF78EFF07E0C9F30720FFF789FF09F027
:10051000FF00FFF785FF4FEA4B604FEA106B0AF1CF
:10052000010ABAF1080FE2D308F10108B8F1100F7F
:10053000D5D30448C06840F480500249C860BDE883
:10054000F09F000000100140500900082DE9F05F05
:1005500004460D4690461E46DDF8289005F1070C2E
:100560000CF0FF0304F1070C0CF0FF02E9B2E0B25B
:1005700000F06EF82048C06820F480501E49C86022
:100580000846C06840F48070C8600846C06840F4FF
:100590008060C860002725E0184800EBC80010F80C
:1005A00007B04FF0000A19E00BF08000802807D157
:1005B000C6F30720FFF734FFF0B2FFF731FF07E083
:1005C000C9F30720FFF72CFF09F0FF00FFF728FF12
:1005D0004FEA4B604FEA106B0AF1010ABAF1080FBB
:1005E000E2D37F1C082FD7D30348C06840F4805063
:1005F0000149C860BDE8F09F00100140501100089B
:1006000070B504460D461148C06820F480500F496B
:10061000C8600846C06840F48070C8600846C0687A
:1006200020F48060C860E0B2FFF7FAFE0748C068B7
:1006300040F480600549C860E8B2FFF7F1FE034866
:10064000C06840F480500149C86070BD001001408E
:100650002DE9F04104460F4615461E46394609204D
:10066000FFF7CEFF21461020FFF7CAFF31461120C9
:10067000FFF7C6FF29461220FFF7C2FF39461820B0
:10068000FFF7BEFF21461920FFF7BAFFBDE8F08152
:1006900000BFFEE7704770477047000010B5044682
:1006A0002146054800F015F900BF4021024800F03E
:1006B000D4F80028F9D010BD0038014010B500F082
:1006C00001F810BD0CB5002001900090334800687F
:1006D00040F480303149086000BF3048006800F4C1
:1006E000003000900198401C0190009818B90198C2
:1006F000B0F5A06FF1D12948006800F4003010B1C6
:100700000120009001E0002000900098012843D1D2
:100710002348006840F0100021490860084600683E
:1007200020F0030008600846006840F002000860FE
:100730001A484068194948600846406848600846B9
:10074000406840F4806048600846406820F47C10AF
:1007500048600846406840F4E81048600846006871
:1007600040F08070086000BF0C48006800F0007026
:100770000028F9D00948406820F003000749486084
:100780000846406840F00200486000BF03484068E7
:1007900000F00C000828F9D10CBD00000010024048
:1007A000002002407047000010B51348006840F078
:1007B00001001149086008464068104908400E4988
:1007C0004860084600680E4908400B490860084622
:1007D000006820F4802008600846406820F4FE008D
:1007E00048604FF41F008860FFF768FF4FF000601B
:1007F0000449086010BD0000001002400000FFF82E
:10080000FFFFF6FE08ED00E010B540F22551094863
:1008100000F030F860B140F22551064800F00EF8C3
:10082000044800F051F8C4B2214603A0FFF7D0FC01
:1008300010BD0000003801402563000010B5002203
:10084000002340F66A14A14200D100BF0A1201241D
:100850009440A3B2DC43048010BD02460020B1F5F1
:10086000007F00D100BF13880B400BB1012000E0D6
:100870000020704770B502460024002300250020A8
:1008800040F66A16B14200D100BFC1F3421501F033
:100890001F03012606FA03F3012D02D19689334086
:1008A00006E0022D02D1168A334001E0968A3340D9
:1008B0000C12012606FA04F41688344013B10CB168
:1008C000012000E0002070BD01468888C0F30800C8
:1008D0007047C1F308028280704700BFFEE70146FF
:1008E00000BF704700BF00BF011EA0F10100FBD197
:1008F0007047000070B504460D46E1B20548FFF7A9
:10090000E8FF00BF40210348FFF7A7FF0028F9D008
:10091000204670BD0038014008B515E020210B4885
:10092000FFF79BFF01280ED10848FFF7CDFFC4B2A7
:100930002046FFF7B3FE00204FF4784322460146DD
:100940000090FFF787FD00BFE8E700000038014096
:100950000000000000000000000000000000000097
:100960000000000000000000000000000000000087
:100970000000000000000000000000000000000077
:100980000000000000000000000000000000000067
:100B60000000001010101010100010100000000005
:100B70000000002424240000000000000000000009
:100B800000000024247E2424247E2424000000006D
:100B9000000000107C90907C12127C10000000007D
:100BA0000000000062640810204C8C00000000006F
:100BB00000000000182420508A844A300000000001
:100BC00000000010102000000000000000000000E5
:100BD0000000081020202020202020100800000005
:100BE000000020100808080808080810200000006D
:100BF00000000000001054383854100000000000BD
:100C0000000000000010107C101000000000000028
:100C10000000000000000000000010102000000094
:100C2000000000000000007C000000000000000048
:100C300000000000000000000000001000000000A4
:100C40000000000000020408102040000000000026
:100C50000000003844444C54644444380000000010
:100C600000000010301010101010103800000000AC
:100C700000000038440404081020407C00000000FC
:100C80000000007C04081038040404780000000010
:100C900000000008182848487C08080800000000E8
:100CA0000000007C4040407804040478000000000C
:100CB0000000003C404040784444443800000000BC
:100CC0000000007C04040810202020200000000008
:100CD00000000038444444384444443800000000D4
:100CE000000000384444443C040404380000000080
:100CF00000000000000000100000100000000000D4
:100D00000000000000000000100010102000000093
:100D1000000000000004081020100804000000007B
:100D2000000000000000007C007C000000000000CB
:100D3000000000000020100804081020000000003F
:100D40000000384444040810100010100000000097
:100D5000000000000038445C545C403C000000008F
:100D6000000018244242427E4242424200000000FB
:100D700000007C4242427C424242427C0000000031
:100D800000003C42404040404040423C00000000E7
:100D900000007C42424242424242427C000000004B
:100DA00000007E40404078404040407E000000000F
:100DB00000007E404040784040404040000000003D
:100DC00000003C4240405E424242423C0000000083
:100DD0000000424242427E42424242420000000043
:100DE0000000381010101010101010380000000013
:100DF00000001C0808080808080848300000000027
:100E000000004244485060605048444200000000E6
:100E100000004040404040404040407E0000000014
:100E200000008282C6C6AAAA9292828200000000B6
:100E3000000042626252524A4A46464200000000A6
:100E400000003C42424242424242423C000000001A
:100E500000007C424242427C404040400000000092
:100E600000003C424242424242424A3C0E000000E4
:100E700000007C424242427C504844420000000054
:100E800000003C4240403C020202423C00000000A4
:100E900000007C1010101010101010100000000046
:100EA00000004242424242424242423C00000000B4
:100EB000000044444444282828101010000000007A
:100EC00000008282828254545428282800000000A6
:100ED0000000424224181818242442420000000056
:100EE0000000444444442828101010100000000062
:100EF00000007E02020408102040407E0000000036
:100F00000000382020202020202020380000000071
:100F10000000000000004020100804020000000053
:100F200000001C04040404040404041C0000000069
:100F30000000000010284400000000000000000035
:100F4000000000000000000000000000FF000000A2
:100F50000000001010080000000000000000000069
:100F6000000000000078043C4444443A00000000C3
:100F700000004040405C62424242625C000000006F
:100F800000000000003C42404040423C00000000A5
:100F900000000202023A46424242463A0000000085
:100FA00000000000003C42427E40423C0000000045
:100FB00000000E1010103C10101010100000000067
:100FC00000000000003E424242423E02023C00005D
:100FD00000004040405C6242424242420000000049
:100FE00000000008000808080808080800000000C1
:100FF0000000000400040404040404044438000055
:101000000000404040424448506844420000000014
:101010000000101010101010101010100000000030
:101020000000000000EC9292929292920000000068
:1010300000000000007C42424242424200000000A8
:1010400000000000003C42424242423C00000000DE
:1010500000000000005C62424242625C40400000CE
:1010600000000000003A46424242463A02020000B6
:1010700000000000005C6240404040400000000072
:1010800000000000003C42403C02423C00000000E6
:1010900000000020207820202020221C00000000DA
:1010A00000000000004242424242423E0000000076
:1010B00000000000004242424242241800000000AA
:1010C00000000000008282829292AA440000000088
:1010D00000000000004242241824424200000000A8
:1010E000000000000042424242423E02023C000038
:1010F00000000000007E02041820407E0000000076
:1011000000000810101020402010101008000000EF
:1011100000101010101010101010101010101000EF
:10112000000020101010080408101010200000000B
:1011300000000000000022548800000000000000B1
:10114000000000000000000000000000000000009F
:101150007FC4DEC6F6C67F00FF44D5C4D4D5FF00E9
:10116000FC466E6EEE6EFC007FF1F7F1FDF17F0044
:10117000FF11B5B5B5B1FF00FC1E5E1E7E7EFC0002
:101180007FC5EDEDEDED7F00FF7425547574FF0014
:10119000FC46D646CE56FC007FF1F5F5F5F17F0012
:1011A000FC6E2E4E6E6EFC007FC4D5D4D5C57F007C
:1011B000FC46DE46DEDEFC000000000000E0E0E071
:1011C000183C3CFF7E180000081C22223649221CD5
:1011D0004EB1501010110E00FF4242242418180086
:1011E000FF7E7E3C3C18180000181824244242FF61
:1011F0000018183C3C7E7EFF01020408102040804D
:101200008040201008040201427E5A18BDFF810070
:10121000223F421E123F0202182442BD14244818E5
:101220007222F62777A32224007F49497F41430099
:101230000008047E040800000010207E201000003A
:1012400010385410101010001010101054381000E6
:10125000000000000000000010101010100010002E
:101260002828280000000000247E2424247E240056
:10127000103C503814781000225424081215220013
:10128000205050304A443A00080810000000000086
:101290000810202020100800201008080810200046
:1012A000082A1C081C2A08000008083E080800003C
:1012B0000000000008081000000000003C000000D2
:1012C000000000000000100001020408102040008F
:1012D0003E43454951613E000818080808080800C7
:1012E0003C42021C20407E003C42023C02423C0048
:1012F00008182848487E08007E40407C02027C0096
:101300003C40407C42423C007E0204040808080045
:101310003C42423C42423C003C42423E02423C0093
:10132000000010000010000000001000001020005D
:10133000040810201008040000007C00007C00005D
:1013400020100804081020001C22020408000800D5
:101350001C225D534F221C001C2241417F41410051
:101360007E41417E41417E003E41404040413E0041
:101370007E41414141417E007F40407E40407F00B0
:101380007F40407C404040003E41404F41413E0054
:101390004141417F414141001C08080808081C00E8
:1013A0001C08080808483000444850605048440071
:1013B0004040404040407F00416355494141410029
:1013C00041615149454341003E41414141413E0057
:1013D0007E41417E404040003E41414145423D000A
:1013E0007E41417E444241003E41403E01413E003B
:1013F0007F080808080808004141414141413E007A
:101400004141414122140800414141495563410095
:10141000412214081422410041221408080808003F
:101420007F02040810207F00382020202020380070
:101430004428107C107C1000380808080808380080
:1014400010284400000000000000000000007F00A1
:101450000000000000000000000038043C443A0096
:101460000020203824243800000000384040380094
:101470000404041C24241C00000038447C40380070
:101480000008103810101000000018241C04380048
:101490000020203824242400100010101010100008
:1014A00008000808080830000020242830282400FC
:1014B0001010101010103800000000785454540020
:1014C0000000003824242400000000304848300088
:1014D0000038242438202000001C24241C0404008C
:1014E00000002830202020000000182010083000C4
:1014F00000001038101018000000002424241800E8
:101500000000002222140800000000444454280077
:1015100000004428102844000024241C040418005F
:101520000000003C08103C0018101020101018009B
:1015300010101010101010001808080408081800E7
:10154000001428000000000000000000000000005F
:10155000000000FF0000000010101010101010100C
:101560000000001F10101010000000F010101010EC
:10157000101010F0000000001010101F00000000FC
:101580001010101F10101010000000FF101010108D
:10159000101010F010101010101010FF00000000BC
:1015A000101010FF101010103C4281818181423CCC
:1015B0003C7EFFFFFFFF7E3C10107C1010007C0083
:1015C000102844824428100010387CFE7C3810001B
:1015D000FF818181818181FFFFFFFFFFFFFFFFFF0F
:1015E00049221449142249007F007F080808080096
:1015F0003F202020A060200010181414307020001C
:101600000102040810207F000022140814220000A8
:101610000008003E00080000235454745454530042
:10162000635454545454630090D0D0B7B595970088
:10163000E14149555D514D001C367777777F361C67
:1016400000000054000000003C4299A1A199423CD6
:1016500020203824242830000000000020502000E2
:101660001C101010100000000000080808083800C6
:101670000000000020100800000000001000000022
:101680007F017F02020418000000003E0A081000DB
:101690000000000C701010000000107C44041800C2
:1016A0000000007C10107C000000107C1030500006
:1016B000000000207C2420000000003808087C0086
:1016C00000007C043C047C0000000054540408002A
:1016D000000000403F0000007F01090808081000DA
:1016E0000106186808080800087F41010204080084
:1016F0003E08080808087F00027F060A12224200FE
:10170000107F111111210200107E087E08040400D0
:101710003F21410202040800203F44040404080061
:101720007F01010101017F00227F222204041800B1
:1017300071017102020C70007F0204081422410042
:10174000207F212220201F004121010202041800D5
:101750003F21215F01020C003E04047F04040800C5
:1017600010492102020478007F00007F0808100061
:10177000404040704C404000087F08081010200096
:101780007E00000000007E007F010214081460004B
:10179000087F021C2A4908000101020204186000A7
:1017A000002022224141410040407E4040403F0015
:1017B0007F010102020438001028440201000000E9
:1017C000087F082A494908007F01022418080400FC
:1017D0003C00003C00003E0010101024224679001E
:1017E00002022414081460007E107E1010100E00F7
:1017F000107F111208080800003E020202027F005A
:101800007F01017F01017F003E007F01020C30005B
:10181000424242020404180008282828292A4C00C1
:1018200020202021222C30007F41414141417F0076
:101830007F4141020204180070010101020C700096
:101840001048200000000000205020000000000090
:101850007F41417F41417F003F213F213F41410086
:101860000849490814146300080B7C2A4A09180027
:10187000087F1C2A2A490800083E5D3E2A3E7F0058
:1018800008083E0808087F00000000FF00FF000075
:1018900014141414141414140000000F101314144E
:1018A000000000F804E41414141414E404F8000014
:1018B00014141413100F0000141414171017141418
:1018C000000000FF00F71414141414F404F41414AA
:1018D000141414F700FF0000141414F700F7141484
:1018E0002030383C38302000040C1C3C1C0C040018
:1018F00000007F3E1C0800000000081C3E7F000026
:101900007F41554955417F007F41414141417F0021
:10191000011A2644444A310018242438246438002B
:101920007E20100810207E003C42424224246600A3
:10193000242424243C204000FF818595BD81FF00A4
:101940001C2249494D41221C3C42A581A599423C9B
:1019500000000000000000007819000800000020CE
:101960000800000028010008801900080800002075
:1019700060060000440100080000000000000000B4
:04000005080000ED02
:00000001FF
