:020000040800F2
:10000000000400200101000855070008210600082F
:1000100051070008EB040008810C000800000000F4
:10002000000000000000000000000000D9070008E8
:10003000EF0400080000000057070008C50800088A
:100040001B0100081B0100081B0100081B01000820
:100050001B0100081B0100081B0100081B01000810
:100060001B0100081B0100081B0100081B01000800
:100070001B0100081B0100081B0100081B010008F0
:100080001B0100081B0100081B0100081B010008E0
:100090001B0100081B0100081B0100081B010008D0
:1000A0001B0100081B0100081B0100081B010008C0
:1000B0001B0100081B0100081B0100081B010008B0
:1000C0001B0100081B0100081B0100081B010008A0
:1000D0001B0100081B0100081B0100081B01000890
:1000E0001B0100081B0100081B010008DFF80CD0F1
:1000F00000F0CAF900480047F10C00080004002095
:100100000648804706480047FEE7FEE7FEE7FEE7B1
:10011000FEE7FEE7FEE7FEE7FEE7FEE7C9080008A8
:10012000ED0000082DE9FE4F81EA030404F00044CD
:1001300021F0004100944FF0000B23F0004350EAFF
:1001400001045ED052EA03045BD0C3F30A54C1F346
:100150000A552C44A4F2F3340194A0FB0254C1F3D9
:10016000130141F48011C3F3130343F4801301FB23
:10017000024400FB034E840A970A44EA815447EA8A
:100180008357A4FB076802958D0A05FB07854FEA94
:10019000932C04FB0C542705029D4FEA065847EAAE
:1001A0001637B5EB08056EEB070C870E920E47EA83
:1001B000811742EA8312A7FB0201B6EB0B0164EB45
:1001C00000042B0D43EA0C335E1844EB1C50DA4656
:1001D0005146E7FB0201C5F313044FEA0B3343EA30
:1001E00014534FEA0432019C43EA0603A4F10C04C1
:1001F0000294009CCDE900B400F0F8F803B0BDE82B
:10020000F08F00200146F9E72DE9F04D81EA030463
:1002100004F0004B21F0004514464FF0000A23F093
:10022000004150EA050220D054EA01021DD0C5F376
:100230000A570246C5F31303C1F31300C1F30A566C
:1002400040F4801543F48013A7EB0608101BD64634
:1002500008F2FD3873EB050002D308F1010801E054
:1002600092185B41B8F1000F03DA00200146BDE8A7
:10027000F08D00204FF48011064684460EE0171BD7
:1002800073EB050705D3121B63EB050306434CEA2A
:10029000010C49084FEA300092185B4150EA01070F
:1002A000EDD152EA030012D082EA040083EA05018C
:1002B000084305D0101BAB4106D20122002306E003
:1002C00000224FF0004302E06FF0010253101AEBDE
:1002D00006004CEB085110EB0A0041EB0B01BDE8A6
:1002E000F04D00F074B80EB540F233410291002198
:1002F000CDE900110A460B4600F078F803B000BDC6
:1003000020F00040C10DC0F3160040F400007F292A
:1003100001DA00207047962903DCC1F19601C8403C
:10032000704796398840704701F0004330B421F09F
:10033000004150EA010206D00A0DA2F56072C1F335
:100340001301002A02DC30BC00207047440F44EA4D
:10035000C104C100E01830BC00EBC250AFF3008014
:100360000029A8BF7047401C490008BF20F00100C9
:10037000704710B4B0FA80FC00FA0CF050EA0104A7
:1003800004BF10BC704749B1CCF1200421FA04F439
:1003900011FA0CF118BF012121430843A3EB0C0112
:1003A000CB1D4FEA00614FEA102042BF002010BC75
:1003B000704700EBC35010440029A4BF10BC704725
:1003C000401C490008BF20F0010010BC704710B568
:1003D000141E73F1000408DA401C41F10001921868
:1003E0005B411A4301D120F0010010BD2DE9F04D11
:1003F00092469B4611B1B1FA81F202E0B0FA80F266
:100400002032904600F052F804460F4640EA0A00B7
:1004100041EA0B0153465A46084313D0114653EAAA
:10042000010019D0C8F14002504600F04EF80546D0
:100430000E4650465946424600F038F8084305D06B
:10044000012004E020463946BDE8F08D0020054338
:1004500046EAE0762C4337430A986305E40AA0EBAA
:1004600008000022FD0A44EA47540A3002D5002061
:100470000146E9E7010510196941DDE90845001960
:100480006941BDE8F04DA2E7064C074D06E0E06883
:1004900040F0010394E8070098471034AC42F6D3CB
:1004A000FFF728FE480D0008580D0008202A04DB3D
:1004B000203A00FA02F1002070479140C2F1200377
:1004C00020FA03F3194390407047202A04DB203AB6
:1004D00021FA02F00021704721FA02F3D040C2F164
:1004E0002002914008431946704700BFFEE770475D
:1004F0002DE9F041024600250026002000230024BB
:10050000002791F803C00CF00F0591F803C00CF020
:10051000100CBCF1000F03D091F802C04CEA0505A5
:1005200091F800C0BCF1000F31D0146800202BE01E
:100530004FF0010C0CFA00F3B1F800C00CEA03060E
:100540009E4220D183004FF00F0C0CFA03F7BC43FE
:1005500005FA03FC4CEA040491F803C0BCF1280F2F
:1005600006D14FF0010C0CFA00FCC2F814C00AE0EE
:1005700091F803C0BCF1480F05D14FF0010C0CFA03
:1005800000FCC2F810C0401C0828D1D31460B1F898
:1005900000C0BCF1FF0F34DD546800202EE000F1F4
:1005A000080C4FF0010808FA0CF3B1F800C00CEA8F
:1005B00003069E4221D183004FF00F0C0CFA03F783
:1005C000BC4305FA03FC4CEA040491F803C0BCF1F7
:1005D000280F05D100F1080C08FA0CF8C2F81480B5
:1005E00091F803C0BCF1480F07D100F1080C4FF09F
:1005F000010808FA0CF8C2F81080401C0828CED375
:100600005460BDE8F0810246002093680B400BB1B6
:10061000012000E000207047416170470161704790
:1006200000BFFEE708B50121042000F0B5F8012065
:10063000ADF8000004208DF8030001208DF80200C1
:1006400069460248FFF754FF08BD0000000801405A
:100650002DE9F04F8DB004468946924601210846A7
:1006600000F07AF80121042000F096F80420ADF89B
:100670002C0018208DF82F0003208DF82E000BA9D8
:100680002648FFF735FF4FF0804000F059F9ADF8EC
:100690002440ADF820900020ADF82600ADF82200EF
:1006A0008DF8280008A94FF0804000F097FA7020DC
:1006B000ADF810000120ADF812000020ADF81800D0
:1006C0002046FFF710FECDE902015046FFF70BFE72
:1006D00007460022124BFFF797FDCDE90001DDE947
:1006E0000223FFF71FFD0546FFF71EFE834658460F
:1006F000FFF706FE80B2ADF8160004A94FF0804067
:1007000000F012FA0821C80600F05EFA01218807FD
:1007100000F00AF90DB0BDE8F08F000000080140BC
:100720000000594008B50121082000F035F82020CC
:10073000ADF8000010208DF8030003208DF80200B2
:1007400069460248FFF7D4FE08BD0000000C0140D6
:1007500000BFFEE77047704729B1064AD2690243DD
:10076000044BDA6104E0034AD2698243014BDA6147
:10077000704700000010024029B1064A1269024386
:10078000044B1A6104E0034A12698243014B1A6167
:10079000704700000010024029B1064A92690243E6
:1007A000044B9A6104E0034A92698243014B9A61C7
:1007B000704700000010024029B1064AD268024387
:1007C000044BDA6004E0034AD2688243014BDA60EA
:1007D0007047000000100240704710B500F002F8AA
:1007E00010BD00000CB50020019000903348006857
:1007F00040F480303149086000BF3048006800F4A0
:10080000003000900198401C0190009818B90198A0
:10081000B0F5A06FF1D12948006800F4003010B1A4
:100820000120009001E0002000900098012843D1B1
:100830002348006840F0100021490860084600681D
:1008400020F0030008600846006840F002000860DD
:100850001A48406819494860084640684860084698
:10086000406840F4806048600846406820F47C108E
:1008700048600846406840F4E81048600846006850
:1008800040F08070086000BF0C48006800F0007005
:100890000028F9D00948406820F003000749486063
:1008A0000846406840F00200486000BF03484068C6
:1008B00000F00C000828F9D10CBD00000010024027
:1008C000002002407047000010B51348006840F057
:1008D00001001149086008464068104908400E4967
:1008E0004860084600680E4908400B490860084601
:1008F000006820F4802008600846406820F4FE006C
:1009000048604FF41F008860FFF767FF4FF00060FA
:100910000449086010BD0000001002400000FFF80C
:10092000FFFFF6FE08ED00E021B1028842F001026F
:10093000028004E002884FF6FE731A40028070477E
:1009400010B504466848844208D10121C014FFF75D
:1009500033FF0021E014FFF72FFFC4E0B4F1804F14
:1009600008D101210846FFF707FF00210120FFF70A
:1009700003FFB8E05D48844208D101210220FFF75F
:10098000FBFE00210220FFF7F7FEACE0584884424E
:1009900008D101210420FFF7EFFE00210420FFF71A
:1009A000EBFEA0E05348844208D101210820FFF764
:1009B000E3FE00210820FFF7DFFE94E04E4884426A
:1009C00008D101211020FFF7D7FE00211020FFF7EA
:1009D000D3FE88E04948844208D101212020FFF756
:1009E000CBFE00212020FFF7C7FE7CE04448844274
:1009F00008D101214014FFF7DFFE00216014FFF74A
:100A0000DBFE70E03F48844209D10121C804FFF7B2
:100A1000D3FE00214FF40020FFF7CEFE63E03A48FA
:100A2000844209D101210805FFF7C6FE00214FF4D9
:100A30008010FFF7C1FE56E03448844209D10121FD
:100A40004805FFF7B9FE00214FF40010FFF7B4FE90
:100A500049E02F48844208D101214020FFF78CFE55
:100A600000214020FFF788FE3DE02A48844208D15B
:100A700001218020FFF780FE00218020FFF77CFE0F
:100A800031E02548844208D101218015FFF774FE2A
:100A90000021A015FFF770FE25E02048844209D10F
:100AA00001210804FFF788FE00214FF48030FFF792
:100AB00083FE18E01A48844209D101214804FFF757
:100AC0007BFE00214FF40030FFF776FE0BE0154867
:100AD000844208D101218804FFF76EFE00214FF403
:100AE0008020FFF769FE10BD002C0140000400408B
:100AF00000080040000C00400010004000140040BE
:100B000000340140004C01400050014000540140BD
:100B100000180040001C0040002000400040014040
:100B2000004401400048014070B500240022002329
:100B3000058C4FF6FF6635400584028C8388848BD4
:100B40004FF68F752C404FF6FC752C400D882C43CA
:100B50004FF6FF552A400D894FF6FF7606EA052528
:100B60002A434D8806EA05252A43154DA84202D09E
:100B7000144DA8421DD14FF2FF752A404D894FF602
:100B8000FF7606EA05252A434FF6FF352A408D8871
:100B900006EA05252A434EF6FF752B404DF6FF75F4
:100BA0002B408D8906EA05152B43CD8906EA0515EC
:100BB0002B4383808483CD888587028470BD0000A9
:100BC000002C0140003401400A460021818B4FF681
:100BD000F773194011438183704700000022028897
:100BE0001D4B98420ED01D4B98420BD0B0F1804F58
:100BF00008D01B4B984205D01A4B984202D01A4B92
:100C0000984204D14FF68F731A404B881A43174B02
:100C1000984207D0164B984204D04FF6FF431A4033
:100C2000CB881A4302808B8883850B8803850A4B07
:100C300098420BD0094B984208D00E4B984205D0F1
:100C40000D4B984202D00D4B984201D10B7A03868E
:100C50000123838270470000002C014000340140D2
:100C60000004004000080040000C0040001000405C
:100C70000014004000400140004401400048014091
:100C800000BFFEE702E008C8121F08C1002AFAD11F
:100C900070477047002001E001C1121F002AFBD1FC
:100CA000704710B5044603E04FF47A7000F005F881
:100CB000201EA4F10104F7D110BD014601EBC102D1
:100CC0004FF0E0235A6100229A6101221A6100BFAD
:100CD0004FF0E022106900F001021AB100F48032F6
:100CE000002AF5D000224FF0E0231A619A61704784
:100CF000FFF718FDFFF796FC322200216420FFF772
:100D0000A7FC1BE001210E48FFF77DFCB0B91420C1
:100D1000FFF7C7FF01210A48FFF775FC70B92021D2
:100D20000848FFF77BFC00BF01210548FFF76BFC7B
:100D30000028F9D020210348FFF76EFCE2E700000D
:100D400000080140000C0140580D00080000002080
:080D500000040000940C0008EF
:04000005080000ED02
:00000001FF
