:020000040800F2
:100000000004002001010008C504000837040008AE
:10001000C104000849010008C106000800000000F2
:100020000000000000000000000000007105000852
:100030004D010008000000004D0500085D060008A5
:100040001B0100081B0100081B0100081B01000820
:100050001B0100081B010008510100081B010008DA
:100060001B0100081B0100081B0100081B01000800
:100070001B0100081B0100081B0100081B010008F0
:100080001B0100081B0100081B0100081B010008E0
:100090001B0100081B0100081B0100081B010008D0
:1000A0001B0100081B0100081B0100081B010008C0
:1000B0001B0100081B0100081B0100081B010008B0
:1000C0001B0100081B0100081B0100081B010008A0
:1000D0001B0100081B0100081B0100081B01000890
:1000E0001B0100081B0100081B010008DFF80CD0F1
:1000F00000F018F80048004731070008000400200D
:100100000648804706480047FEE7FEE7FEE7FEE7B1
:10011000FEE7FEE7FEE7FEE7FEE7FEE76106000812
:10012000ED000008064C074D06E0E06840F00103D2
:1001300094E8070098471034AC42F6D3FFF7DAFF93
:100140008C0700089C07000800BFFEE7704700000E
:1001500010B5012000F01AF801280ED1202107481F
:1001600000F057F9C0F10100C4B222462021034833
:1001700000F05CF9012000F003F810BD000C014014
:100180000149086070470000140401400146002046
:100190000022074B1B6803EA0102054B14331B685E
:1001A0000B4013B10AB1012000E0002070470000AD
:1001B00000040140002123498279002A3AD00A46EE
:1001C000126803689A430B461A600A1D1268036896
:1001D0009A430B1D1A60027911440A6803681A4396
:1001E0000A60184A0832126803689A43154B0833AC
:1001F0001A601A1D126803689A43124B0C331A6076
:100200004279102A0ED11A1F126803681A430D4B47
:1002100008331A601A1D126803681A43094B0C331D
:100220001A600DE00749427911440A6803681A43CD
:100230000A6005E0027911440A6803689A430A607B
:1002400070470000000401401FB50121042000F0A8
:100250007FF948208DF80F0003208DF80E00012053
:10026000ADF80C0003A9144800F048F80021084636
:1002700000F024F80120019000208DF808000C20E7
:100280008DF8090001208DF80A0001A8FFF792FF00
:100290004FF4A06000F050F906208DF80000012016
:1002A0008DF8010000208DF8020001208DF8030078
:1002B000684600F009F91FBD0008014030B5002272
:1002C0008B071C0F0F2303FA04F20B4B8C1053F80F
:1002D00024309343084C8D1044F8253023468C106D
:1002E00053F824308C07240F00FA04F42343024C03
:1002F0008D1044F8253030BD080001402DE9F04153
:10030000024600250026002000230024002791F843
:1003100003C00CF00F0591F803C00CF0100CBCF1F9
:10032000000F03D091F802C04CEA050591F800C017
:10033000BCF1000F31D0146800202BE04FF0010C0D
:100340000CFA00F3B1F800C00CEA03069E4220D17B
:1003500083004FF00F0C0CFA03F7BC4305FA03FCC3
:100360004CEA040491F803C0BCF1280F06D14FF009
:10037000010C0CFA00FCC2F814C00AE091F803C0AA
:10038000BCF1480F05D14FF0010C0CFA00FCC2F88B
:1003900010C0401C0828D1D31460B1F800C0BCF1D3
:1003A000FF0F34DD546800202EE000F1080C4FF000
:1003B000010808FA0CF3B1F800C00CEA03069E42EB
:1003C00021D183004FF00F0C0CFA03F7BC4305FA60
:1003D00003FC4CEA040491F803C0BCF1280F05D1DA
:1003E00000F1080C08FA0CF8C2F8148091F803C068
:1003F000BCF1480F07D100F1080C4FF0010808FAD2
:100400000CF8C2F81080401C0828CED35460BDE818
:10041000F0810246002093680B400BB1012000E000
:100420000020704741617047016170470AB1016166
:1004300000E04161704700BFFEE7000008B5012100
:10044000102000F085F84FF40050ADF800000420B3
:100450008DF8030001208DF8020069460148FFF77E
:100460004DFF08BD0010014008B50121042000F037
:100470006FF80120ADF8000004208DF80300012082
:100480008DF8020069460248FFF738FF08BD0000FA
:100490000008014008B50121082000F059F820208B
:1004A000ADF8000010208DF8030003208DF8020045
:1004B00069460248FFF722FF08BD0000000C01401A
:1004C00000BFFEE77047000070B5002100230F2237
:1004D000C47804B3154C246804F4E064C4F5E06403
:1004E000210AC1F10403CA40447804FA03F1847874
:1004F0001440214309010E4C0678A155047804F0FC
:100500001F050124AC4005786D11AD0005F1E02513
:10051000C5F8004109E0047804F01F050124AC404F
:10052000044D0678761145F8264070BD0CED00E0CC
:1005300000E400E080E100E002490143024A11606A
:10054000704700000000FA050CED00E07047000065
:1005500029B1064A92690243044B9A6104E0034AB6
:1005600092698243014B9A6170470000001002407B
:10057000704710B500F002F810BD00000CB5002067
:10058000019000903348006840F4803031490860A1
:1005900000BF3048006800F4003000900198401C13
:1005A0000190009818B90198B0F5A06FF1D12948D1
:1005B000006800F4003010B10120009001E000203C
:1005C00000900098012843D12348006840F01000B3
:1005D000214908600846006820F0030008600846CA
:1005E000006840F0020008601A48406819494860F5
:1005F0000846406848600846406840F480604860AB
:100600000846406820F47C1048600846406840F482
:10061000E81048600846006840F08070086000BF3D
:100620000C48006800F000700028F9D009484068C4
:1006300020F00300074948600846406840F0020087
:10064000486000BF0348406800F00C000828F9D15A
:100650000CBD000000100240002002407047000066
:1006600010B51348006840F00100114908600846C1
:100670004068104908400E494860084600680E4925
:1006800008400B4908600846006820F48020086094
:100690000846406820F4FE0048604FF41F00886060
:1006A000FFF767FF4FF000600449086010BD0000CD
:1006B000001002400000FFF8FFFFF6FE08ED00E02A
:1006C00000BFFEE702E008C8121F08C1002AFAD1E5
:1006D00070477047002001E001C1121F002AFBD1C2
:1006E000704710B5044603E04FF47A7000F005F847
:1006F000201EA4F10104F7D110BD014601EBC10297
:100700004FF0E0235A6100229A6101221A6100BF72
:100710004FF0E022106900F001021AB100F48032BB
:10072000002AF5D000224FF0E0231A619A61704749
:10073000FFF7B0FEFFF798FEFFF780FEFFF784FD9E
:100740001EE04FF400510F48FFF763FEC0B91420BC
:10075000FFF7C7FF4FF400510A48FFF75AFE78B978
:1007600020210948FFF760FE00BF4FF40051054803
:10077000FFF74FFE0028F8D020210348FFF752FE74
:10078000DFE7000000100140000C01409C0700085A
:0C0790000000002000040000D406000857
:04000005080000ED02
:00000001FF
